:020000040800F2
:1000000000000220C5250008950F0008970F000882
:10001000990F00089B0F00089D0F000800000000CA
:100020000000000000000000000000009F0F00081A
:10003000A10F000800000000A30F0008A50F000892
:1000400015260008152600081526000815260008A4
:100050001526000815260008152600081526000894
:100060001526000815260008152600081526000884
:100070001526000815260008152600081526000874
:100080001526000815260008152600081526000864
:100090001526000815260008152600081526000854
:1000A0001526000815260008152600081526000844
:1000B0001526000815260008152600081526000834
:1000C0001526000815260008152600081526000824
:1000D0001526000815260008152600081526000814
:1000E0001526000815260008152600081526000804
:1000F00015260008152600081526000815260008F4
:1001000015260008152600081526000815260008E3
:1001100015260008152600081526000815260008D3
:1001200015260008152600081526000815260008C3
:1001300015260008152600081526000815260008B3
:1001400015260008152600081526000815260008A3
:100150001526000815260008152600081526000893
:100160001526000815260008152600081526000883
:1001700015260008152600081526000800000000B6
:080180001526000815260008F1
:1001880010B5054C237833B9044B13B10448AFF3C9
:1001980000800123237010BD4004002000000000EF
:1001A800E427000808B5034B1BB103490348AFF324
:1001B800008008BD0000000044040020E427000877
:1001C80070B54FF0FF0C4CF4E06C1CEA11541DBFE5
:1001D8001CEA135594EA0C0F95EA0C0F00F0DEF8B0
:1001E8002C4481EA030621EA4C5123EA4C5350EA95
:1001F800013518BF52EA033541F4801143F48013E6
:1002080038D0A0FB02CE4FF00005E1FB02E506F076
:100218000042E0FB03E54FF00006E1FB03569CF0CB
:10022800000F18BF4EF0010EA4F1FF04B6F5007FD1
:1002380064F5407404D25FEA4E0E6D4146EB060643
:1002480042EAC62141EA55514FEAC52040EA5E50CC
:100258004FEACE2EB4F1FD0C88BFBCF5E06F1ED876
:10026800BEF1004F08BF5FEA500E50F1000041EBAD
:10027800045170BD06F0004646EA010140EA02005A
:1002880081EA0301B4EB5C04C2BFD4EB0C0541EA7C
:10029800045170BD41F480114FF0000E013C00F391
:1002A800AB8014F1360FDEBF002001F0004170BDB5
:1002B800C4F10004203C35DA0C341BDC04F11404CE
:1002C800C4F1200500FA05F320FA04F001FA05F25A
:1002D80040EA020001F0004221F0004110EBD37027
:1002E80021FA04F642EB06015EEA430E08BF20EA53
:1002F800D37070BDC4F10C04C4F1200500FA04F3F6
:1003080020FA05F001FA04F240EA020001F0004187
:1003180010EBD37041F100015EEA430E08BF20EAFA
:10032800D37070BDC4F1200500FA05F24EEA020E42
:1003380020FA04F301FA05F243EA020321FA04F071
:1003480001F0004121FA04F220EA020000EBD37028
:100358005EEA430E08BF20EAD37070BD94F0000F28
:100368000FD101F00046400041EB010111F4801F5C
:1003780008BF013CF7D041EA060195F0000F18BF0D
:10038800704703F00046520043EB030313F4801F49
:1003980008BF013DF7D043EA0603704794EA0C0F03
:1003A8000CEA135518BF95EA0C0F0CD050EA410619
:1003B80018BF52EA4306D1D181EA030101F0004196
:1003C8004FF0000070BD50EA410606BF10461946BE
:1003D80052EA430619D094EA0C0F02D150EA0136CA
:1003E80013D195EA0C0F05D152EA03361CBF10460B
:1003F80019460AD181EA030101F0004141F0FE41AA
:1004080041F470014FF0000070BD41F0FE4141F42D
:10041800780170BD81F0004102E000BF83F0004325
:1004280030B54FEA41044FEA430594EA050F08BF87
:1004380090EA020F1FBF54EA000C55EA020C7FEA4B
:10044800645C7FEA655C00F0E2804FEA5454D4EBC8
:100458005555B8BF6D420CDD2C4480EA020281EA92
:10046800030382EA000083EA010180EA020281EACA
:100478000303362D88BF30BD11F0004F4FEA01311C
:100488004FF4801C4CEA113102D0404261EB41012B
:1004980013F0004F4FEA03334CEA133302D05242B1
:1004A80063EB430394EA050F00F0A780A4F101046D
:1004B800D5F1200E0DDB02FA0EFC22FA05F28018A7
:1004C80041F1000103FA0EF2801843FA05F359418D
:1004D8000EE0A5F120050EF1200E012A03FA0EFC0C
:1004E80028BF4CF0020C43FA05F3C01851EBE37136
:1004F80001F0004507D54FF0000EDCF1000C7EEB53
:1005080000006EEB0101B1F5801F1BD3B1F5001F90
:100518000CD349085FEA30004FEA3C0C04F10104AF
:100528004FEA445212F5800F80F09A80BCF1004FD8
:1005380008BF5FEA500C50F1000041EB045141EA5A
:10054800050130BD5FEA4C0C404141EB0101013C23
:1005580028BFB1F5801FE9D291F0000F04BF014612
:100568000020B1FA81F308BF2033A3F10B03B3F1E4
:1005780020020CDA0C3208DD02F1140CC2F10C0274
:1005880001FA0CF021FA02F10CE002F11402D8BFD2
:10059800C2F1200C01FA02F120FA0CFCDCBF41EA9E
:1005A8000C019040E41AA2BF01EB0451294330BD6D
:1005B8006FEA04041F3C1CDA0C340EDC04F114044A
:1005C800C4F1200220FA04F001FA02F340EA030021
:1005D80021FA04F345EA030130BDC4F10C04C4F167
:1005E800200220FA02F001FA04F340EA0300294647
:1005F80030BD21FA04F0294630BD94F0000F83F491
:10060800801306BF81F480110134013D4EE77FEA73
:10061800645C18BF7FEA655C29D094EA050F08BFBF
:1006280090EA020F05D054EA000C04BF19461046A0
:1006380030BD91EA030F1EBF0021002030BD5FEAE4
:10064800545C05D14000494128BF41F0004130BD0C
:1006580014F580043CBF01F5801130BD01F0004560
:1006680045F0FE4141F470014FF0000030BD7FEAD3
:10067800645C1ABF194610467FEA655C1CBF0B46CE
:10068800024650EA013406BF52EA033591EA030FE5
:1006980041F4002130BD00BF90F0000F04BF0021DD
:1006A800704730B54FF4806404F132044FF0000510
:1006B8004FF0000150E700BF90F0000F04BF002189
:1006C800704730B54FF4806404F1320410F00045EF
:1006D80048BF40424FF000013EE700BF42004FEAEA
:1006E800E2014FEA31014FEA02701FBF12F07F4367
:1006F80093F07F4F81F06051704732F07F4208BF1E
:10070800704793F07F4F04BF41F40021704730B524
:100718004FF4607401F0004521F000411CE700BF70
:1007280050EA010208BF704730B54FF000050AE0F3
:1007380050EA010208BF704730B511F0004502D5F4
:10074800404261EB41014FF4806404F132045FEAF6
:10075800915C3FF4D8AE4FF003025FEADC0C18BF9F
:1007680003325FEADC0C18BF033202EBDC02C2F191
:10077800200300FA03FC20FA02F001FA03FE40EA23
:100788000E0021FA02F11444BDE600BF53B94AB97C
:10079800002908BF00281CBF4FF0FF314FF0FF3081
:1007A80000F074B9ADF1080C6DE904CE00F006F85C
:1007B800DDF804E0DDE9022304B070472DE9F047D5
:1007C800089E0D4604468846002B4DD18A42944621
:1007D80068D9B2FA82F252B101FA02F3C2F12001E9
:1007E80020FA01F10CFA02FC41EA030894404FEAAE
:1007F8001C45210CB8FBF5FE1FFA8CF705FB1E8380
:1008080041EA03430EFB07F199420BD91CEB0303A2
:100818000EF1FF3080F01E81994240F21B81AEF14B
:10082800020E63445B1AA4B2B3FBF5F005FB103368
:1008380044EA034400FB07F7A7420AD91CEB040467
:1008480000F1FF3380F00881A74240F2058164443B
:100858000238E41B40EA0E4000211EB1D4400023B8
:10086800C6E90043BDE8F0878B4208D9002E00F0A6
:10087800EE800021C6E900050846BDE8F087B3FA16
:1008880083F100294AD1AB4202D3824200F2F980B7
:10089800841A65EB030301209846002EE2D0C6E9CE
:1008A8000048DFE702B9FFDEB2FA82F2002A40F020
:1008B8009180A1EB0C054FEA1C471FFA8CFE012121
:1008C800B5FBF7F307FB1350250C45EA00450EFB73
:1008D80003F0A84208D91CEB050503F1FF3802D242
:1008E800A84200F2CB8043462D1AA4B2B5FBF7F01C
:1008F80007FB105544EA05440EFB00FEA64508D93F
:100908001CEB040400F1FF3502D2A64500F2BB80BF
:100918002846A4EB0E0440EA03409EE7C1F12007F5
:100928008B4022FA07FC4CEA030C20FA07F405FA7C
:1009380001F31C43FD404FEA1C4900FA01F3B5FBE3
:10094800F9F8200C1FFA8CFE09FB185540EA0545FA
:1009580008FB0EF0A84202FA01F20BD91CEB0505C0
:1009680008F1FF3A80F08880A84240F28580A8F11B
:10097800020865442D1AA4B2B5FBF9F009FB10551D
:1009880044EA054500FB0EFEAE4508D91CEB0505FB
:1009980000F1FF346CD2AE456AD90238654440EAAA
:1009A8000840A0FB0294A5EB0E05A542C846A64642
:1009B80056D353D05EB1B3EB080265EB0E0505FACA
:1009C80007F722FA01F3CD401F43C6E9007500215D
:1009D800BDE8F087C2F1200320FA03F10CFA02FC0B
:1009E80025FA03F395400D434FEA1C471FFA8CFE86
:1009F800B3FBF7F107FB11302B0C43EA004301FB73
:100A08000EF0984204FA02F408D91CEB030301F132
:100A1800FF382FD298422DD9023963441B1AADB240
:100A2800B3FBF7F007FB103345EA034500FB0EF371
:100A3800AB4208D91CEB050500F1FF3816D2AB42D2
:100A480014D902386544ED1A40EA014138E73146C5
:100A5800304607E78646E5E61846FAE64B45A9D24A
:100A6800B9EB020864EB0C0E0138A3E74046EAE74D
:100A7800204694E74146D1E7D0467BE7023B6544F0
:100A880032E7084609E76444023842E7704700BF86
:100A980030B589B00024039404940594069407940F
:100AA8000094194B1A6B42F001021A631A6B02F098
:100AB80001020092009A01941A6B42F010021A6324
:100AC8001A6B02F010020192019A02941A6B42F01A
:100AD80008021A631B6B03F008030293029B0B4D79
:100AE80022464FF48051284600F09BFE4FF4805375
:100AF8000393012304930594069403A9284600F060
:100B080097FD09B030BD00BF00380240000C02401C
:100B1800002305E05A1C50F822C040F823C01346B1
:100B28004A1E9A42F6D8704700231A4603E050F846
:100B380023C0624401338B42F9D3B2FBF1F0704712
:100B480072B6FEE700B585B00023009301930293C7
:100B580003931448144A02604FF480324260836061
:100B68000361037680F82030C362104A8262C36052
:100B78000122C26180F83030426100F001FB60B9A7
:100B8800002300930122019202936946054800F070
:100B980025FC20B905B05DF804FBFFF7D1FFFFF78E
:100BA800CFFF00BF74040020002001400100000FA7
:100BB80010B596B0002412941394149415941094BC
:100BC800119409940A940B940C940D940E940F9418
:100BD8002022214601A801F03FFD2A4841F268037E
:100BE8004360294B036084604FF4FA63C360046177
:100BF8004461846101F058FA002837D14FF48053DA
:100C0800129312A91F4801F059FB002830D11D4842
:100C180001F076FA00282DD100231093119310A922
:100C2800184801F05BFC38BB6023099300220A9244
:100C38000B920C920D920E920F9209A9114801F095
:100C4800C3FAD8B90023019302930393049305933D
:100C58004FF400520692089301A90A4801F084FC57
:100C680070B9084800F064F916B010BDFFF768FFC6
:100C7800FFF766FFFFF764FFFFF762FFFFF760FF0C
:100C8800FFF75EFFBC0400200000014000B595B0EE
:100C98003022002108A801F0DFFC0023039304930D
:100CA80005930693079301931F4A116C41F08051F5
:100CB8001164126C02F080520192019A02931B4A4D
:100CC800116841F480411160126802F48042029276
:100CD800029A0222089201210B9110210C910E9286
:100CE8000F9308231093A8231193129207231393A9
:100CF80008A800F09DFD98B90F23039302230493DD
:100D0800002305934FF4A05306934FF480530793A1
:100D1800052103A800F0F2FF20B915B05DF804FB27
:100D2800FFF70EFFFFF70CFF00380240007000408D
:100D3800F8B500F05FF9FFF7A9FFFFF7A9FEFFF785
:100D480001FFFFF735FF3C4800F046FA3B4C002115
:100D5800204601F041FB23684FF47A725A6300245D
:100D680042E0354D284600F035FB354E30602846C8
:100D780000F032FA334D08212846FFF7C9FE3368E0
:100D8800EB6108212846FFF7CFFE2F4B186008219A
:100D98002846FFF7C9FEFFF77FFC23A3D3E900230A
:100DA800FFF70EFA06460F46284D21A3D3E9002384
:100DB800D5E90001FFF704FA02460B4630463946EA
:100DC800FFF72EFB224BC3E90001C5E9000111E042
:100DD80000224FF480511F4800F023FD012403E056
:100DE800B3F5967F00D800240A21134800F096FA3C
:100DF8000028B6D0124B1B6840F213529342EFD929
:100E0800002CEDD14FF48051124800F003FD00286A
:100E1800DED101224FF480510E4800F002FD01247A
:100E2800E2E700BFAFF30080000000E051B89E3F4A
:100E3800000000803D0AEF3F74040020BC0400203D
:100E48005C040020040500207004002068040020D1
:100E580060040020000C024000B583B0002100911E
:100E68000C4B5A6C42F480425A645A6C02F4804229
:100E78000092009A01911A6C42F080521A641B6C1D
:100E880003F080530193019B072000F073FB03B02C
:100E98005DF804FB0038024000B589B000230393D5
:100EA8000493059306930793026803F1804303F5BF
:100EB80090339A4202D009B05DF804FB00210191F9
:100EC80003F58C335A6C42F480725A645A6C02F4FB
:100ED80080720192019A02911A6B42F001021A6320
:100EE8001B6B03F001030293029B0123039303236B
:100EF800049303A9014800F09BFBDCE700000240D3
:100F08000268094B9A4200D0704782B000230193CF
:100F1800064B5A6C42F001025A645B6C03F0010301
:100F28000193019B02B07047000001400038024065
:100F380000B587B0002301930293039304930593AC
:100F480002680F4B9A4202D007B05DF804FB0023F9
:100F580000930C4B1A6B42F010021A631B6B03F0E0
:100F680010030093009B4FF4007301930223029334
:100F78000123059301A9044800F05AFBE4E700BFE8
:100F8800000001400038024000100240FEE7FEE782
:100F9800FEE7FEE7FEE770477047704708B500F0C8
:100FA80043F808BD7047000010B504460E4B18788A
:100FB8004FF47A73B3FBF0F30C4A1068B0FBF3F00C
:100FC80000F022FB68B90F2C01D901200AE00022A9
:100FD80021464FF0FF3000F0DFFA054B1C6000207F
:100FE80000E0012010BD00BF040000200000002028
:100FF8000800002008B50B4B1A6842F400721A600A
:101008001A6842F480621A601A6842F480721A60A0
:10101800032000F0AFFA0020FFF7C6FFFFF71CFF20
:10102800002008BD003C0240034A1168034B1B78AE
:101038000B441360704700BF240500200400002003
:10104800014B1868704700BF240500204A4B5A68B6
:1010580022F440325A605A6841680A435A6002686A
:10106800536823F48073536002685368016943EA44
:10107800012353600268536823F040735360026889
:10108800536881680B4353600268936823F40063D4
:10109800936002689368C1680B439360826A374B18
:1010A8009A4257D00268936823F07063936002688D
:1010B8009368816A0B4393600268936823F04053F6
:1010C800936002689368C16A0B43936002689368EF
:1010D80023F00203936002689368017E43EA4103A8
:1010E800936090F82030002B3FD00268536843F497
:1010F800006353600268536823F4604353600168D7
:101108004B68426A013A43EA42334B600268D36A49
:1011180023F47003D3620168CB6AC269013A43EAD7
:101128000253CB620268936823F4007393600268E9
:10113800936890F8301043EA4123936002689368FB
:1011480023F48063936002689368416943EA8123CA
:10115800936070470268936823F070639360026835
:10116800936823F040539360B0E70268536823F410
:1011780000635360CAE700BF002301400100000F6D
:1011880038B310B50446036C43B1236C13F0100F49
:101198000BD00120002384F83C3010BDFFF77CFE03
:1011A8000023636484F83C30EFE7236C23F488530E
:1011B80023F0020343F0020323642046FFF746FFAF
:1011C80000206064236C23F0030343F001032364CD
:1011D800E0E701207047000082B00023019390F8F7
:1011E8003C30012B00F08980012380F83C300368F3
:1011F8009A6812F0010F13D19A6842F001029A60BE
:10120800414B1B68414AA2FB03239B0C03EB43039E
:10121800019302E0019B013B0193019B002BF9D153
:101228000268936813F0010F5CD0036C23F4E06349
:1012380023F0010343F480730364536813F4806F4D
:1012480005D0036C23F4405343F480530364036CC8
:1012580013F4805F1BD0436C23F006034364002320
:1012680080F83C306FF022031360294B5B6813F061
:101278001F0F27D10368274A934211D002F58072C5
:10128800934207D0244A934214D0002033E000232D
:101298004364E4E702F50072526812F01F0FF1D1BF
:1012A8009A6812F0405F2AD19A6842F080429A60A8
:1012B800002020E002F58072526812F0100FEFD083
:1012C800002018E00368134A934201D0002012E07E
:1012D8009A6812F0405F14D19A6842F080429A608E
:1012E800002008E0036C43F010030364436C43F0F0
:1012F80001034364002002B070470220FBE700208E
:10130800F9E70020F7E700BF0000002083DE1B4359
:1013180000230140002001400022014070B504462E
:101328000D4603689A6812F4806F03D09B6813F423
:10133800807F19D1FFF784FE064623681A6812F0E9
:10134800020F20D1B5F1FF3FF7D0B5B923681B686C
:1013580013F0020FF1D1236C43F00403236400233C
:1013680084F83C30032032E0036C43F0200303642C
:10137800002380F83C30012029E0FFF761FE801B44
:10138800A842DAD9E2E76FF012021A60236C43F43C
:101398000073236423689A6812F0405F16D1207E98
:1013A800B0B9DA6A12F4700F03D09B6813F4806F37
:1013B8000DD1236C23F480732364236C13F4805FB2
:1013C80005D1236C43F00103236400E0002070BDC5
:1013D8000020FCE70368D86C7047000030B482B086
:1013E8000023019390F83C30012B00F0BB800123CF
:1013F80080F83C300B68092B41D90468E2689BB23D
:1014080003EB43031E3B4FF0070C0CFA03F322EAED
:101418000303E3600468E2680B8803EB43031E3BA5
:101428008D6805FA03F31343E3604B68062B3DD838
:101438000468626B03EB8303053B4FF01F0C0CFA47
:1014480003F322EA030363630468626B4B6803EBEC
:101458008303053BB1F800C00CFA03F3134363633D
:101468000268414B9A4251D002683F4B9A4256D08B
:10147800002380F83C30184602B030BC704704683E
:1014880022699BB203EB43034FF0070C0CFA03F3FA
:1014980022EA03032361046822690B8803EB4303F0
:1014A8008D6805FA03F313432361BEE70C2B16D8A6
:1014B80005682A6B03EB8303233B1F2404FA03F319
:1014C80022EA03032B6305682A6B4B6803EB83034B
:1014D800233B0C8804FA03F313432B63C0E7056826
:1014E800EA6A03EB8303413B1F2404FA03F322EA6D
:1014F8000303EB620568EA6A4B6803EB8303413B2D
:101508000C8804FA03F31343EB62A9E70B68122B68
:10151800AAD1164A536843F480035360A4E70B68C2
:10152800103B012BA4D8114A536843F400035360BD
:101538000B68102B9CD10E4B1B6802F1467202F50A
:101548002E3202F28332A2FB03239B0C03EB8303AC
:101558005B00019302E0019B013B0193019B002B7F
:10156800F9D185E7022087E70020014000230140E8
:1015780000000020074AD36823F4E0631B041B0C17
:10158800000200F4E060034343F0BF6343F4003318
:10159800D360704700ED00E000B5194BDB68C3F37A
:1015A8000223C3F1070CBCF1040F28BF4FF0040C51
:1015B80003F1040EBEF1060F18D9033B4FF0FF3EAE
:1015C8000EFA0CFC21EA0C0199400EFA03F322EA08
:1015D8000303194300280BDB0901C9B200F160407D
:1015E80000F5614080F800135DF804FB0023E5E78F
:1015F80000F00F000901C9B2024B1954F4E700BF0B
:1016080000ED00E014ED00E00138B0F1807F0BD26E
:101618004FF0E0235861054AF02182F8231000209A
:10162800986107221A6170470120704700ED00E0B9
:1016380000230F2B00F2E48070B582B060E085686B
:101648005E000324B44025EA0405CC68B4402C436A
:101658008460456825EA02054C68C4F300129A4084
:101668002A4342605AE0DC08083450F8246003F04A
:10167800070295000F22AA4026EA020E0A69AA402C
:1016880042EA0E0240F824205CE0072200E0002233
:1016980002FA0EF22A4302345A4D45F824205A4AD7
:1016A80014686FEA0C0224EA0C054E6816F4803FB1
:1016B80001D04CEA0405544C2560646802EA04052C
:1016C8004E6816F4003F01D04CEA04054E4C6560A4
:1016D800A46802EA04054E6816F4801F01D04CEA9B
:1016E8000405494CA560E46822404D6815F4001FC4
:1016F80001D04CEA0402444CE26001330F2B7DD840
:1017080001229A400C6804EA020C32EA0404F4D17B
:101718004C6804F00304013C012C90D94A6802F09B
:101728000302032A09D0C4685D000322AA4024EA00
:1017380002048A68AA402243C2604A6802F003028F
:10174800022A90D004684FEA430E032202FA0EF2EE
:1017580024EA02044A6802F0030202FA0EF2224363
:1017680002604A6812F4403FC7D000220192274A1B
:10177800546C44F480445464526C02F480420192E4
:10178800019A9C08A51C1F4A52F8255003F0030231
:101798004FEA820E0F2202FA0EF225EA02051C4ACF
:1017A80090423FF474AF02F5806290421AD002F57D
:1017B8008062904218D002F58062904216D002F5FD
:1017C8008062904214D002F58062904212D002F5F5
:1017D8008062904210D002F5806290423FF455AF8B
:1017E800082255E7012253E7022251E703224FE777
:1017F80004224DE705224BE7062249E702B070BDF7
:10180800704700BF00380140003C014000380240EA
:10181800000002400369194201D0012070470020EE
:1018280070470AB1816170470904816170470000FF
:10183800002800F0E08170B582B00446036813F018
:10184800010F3BD09F4B9B6803F00C03042B2CD05B
:101858009C4B9B6803F00C03082B21D06368B3F5FD
:10186800803F4FD0B3F5A02F52D0964B1A6822F480
:1018780080321A601A6822F480221A606368002B8A
:1018880050D0FFF7DDFB05468E4B1B6813F4003F75
:1018980014D1FFF7D5FB401B6428F5D90320B1E12B
:1018A800884B5B6813F4800FD8D0864B1B6813F401
:1018B800003F03D06368002B00F09F81236813F07A
:1018C800020F54D07F4B9B6813F00C0F3ED07D4B1A
:1018D8009B6803F00C03082B33D0E368002B68D017
:1018E800794B01221A60FFF7ABFB0546754B1B6865
:1018F80013F0020F54D1FFF7A3FB401B0228F5D9C0
:1019080003207FE16F4A136843F480331360B5E71F
:101918006C4B1A6842F480221A601A6842F48032CA
:101928001A60ABE7FFF78CFB0546664B1B6813F4A0
:10193800003FC3D0FFF784FB401B6428F5D9032080
:1019480060E1604B5B6813F4800FC6D15D4B1B6888
:1019580013F0020F03D0E368012B40F05081594A7D
:10196800136823F0F803216943EAC103136023686D
:1019780013F0080F42D063696BB3534B0122C3F8CD
:10198800802EFFF75DFB05464E4B5B6F13F0020F91
:1019980034D1FFF755FB401B0228F5D9032031E16C
:1019A800484A136823F0F803216943EAC103136026
:1019B800DDE7454B00221A60FFF742FB0546414B25
:1019C8001B6813F0020FD2D0FFF73AFB401B022826
:1019D800F5D9032016E13C4B0022C3F8802EFFF70F
:1019E8002FFB0546374B5B6F13F0020F06D0FFF74E
:1019F80027FB401B0228F5D9032003E1236813F0D5
:101A0800040F77D02F4B1B6C13F0805F33D100236A
:101A180001932C4B1A6C42F080521A641B6C03F031
:101A280080530193019B0125284B1B6813F4807F89
:101A380023D0A368012B34D0052B38D0214B1A6F43
:101A480022F001021A671A6F22F004021A67A368CB
:101A5800002B3DD0FFF7F4FA06461A4B1B6F13F024
:101A6800020F46D1FFF7ECFA801B41F28833984207
:101A7800F3D90320C6E00025D6E7144A136843F4D7
:101A880080731360FFF7DCFA0646104B1B6813F4EB
:101A9800807FCED1FFF7D4FA801B0228F5D9032026
:101AA800B0E0084A136F43F001031367CFE7054B13
:101AB8001A6F42F004021A671A6F42F001021A679D
:101AC800C5E700BF003802400000474200700040F0
:101AD800FFF7B6FA0646524B1B6F13F0020F08D0F9
:101AE800FFF7AEFA801B41F288339842F3D90320FE
:101AF80088E0EDB9A369002B00F08380484A92681A
:101B080002F00C02082A51D0022B17D0454B0022B4
:101B18001A66FFF795FA0446414B1B6813F0007FDD
:101B280042D0FFF78DFA001B0228F5D9032069E09F
:101B38003B4A136C23F080531364DBE7394B0022D4
:101B48001A66FFF77DFA0546354B1B6813F0007FD0
:101B580006D0FFF775FA401B0228F5D9032051E09B
:101B6800E369226A1343626A43EA8213A26A52084B
:101B7800013A43EA0243E26A43EA0263284A5360AD
:101B8800284B01221A66FFF75BFA0446244B1B68B0
:101B980013F0007F06D1FFF753FA001B0228F5D98E
:101BA80003202FE000202DE000202BE0012B2BD07C
:101BB8001B4B5B6803F48001E269914226D103F074
:101BC8003F02216A8A4223D1616A47F6C0721A40ED
:101BD800B2EB811F1ED103F44031A26A5208013AC8
:101BE800B1EB024F18D103F07063E26AB3EB026FF6
:101BF80014D1002006E001207047012002E00120F6
:101C080000E0002002B070BD0120FBE70120F9E7E9
:101C18000120F7E70120F5E70120F3E70120F1E7CC
:101C2800003802400000474208B5314B9B6803F07A
:101C38000C03042B57D0082B57D12D4B5A6802F0B0
:101C48003F025B6813F4800F2AD0294B5968C1F30F
:101C5800881C4FEA4C11B1EB0C006EEB0E0E4FEAEC
:101C68008E1343EA90638101091A63EB0E03DB00CC
:101C780043EA5173C90011EB0C0C43F100035902FC
:101C880000234FEA4C2041EADC51FEF77FFD184B58
:101C98005B68C3F3014301335B00B0FBF3F025E05D
:101CA800134B5968C1F3881C4FEA4C11B1EB0C0077
:101CB8006EEB0E0E4FEA8E1343EA90638101091A08
:101CC80063EB0E03DB0043EA5173C90011EB0C0C04
:101CD80043F10003990200234FEA8C2041EA9C510A
:101CE800FEF754FDD3E7034800E0034808BD00BFF2
:101CF8000038024000127A000024F400002800F0A6
:101D08009B8070B50D4604464F4B1B6803F00703D4
:101D18008B4208D2CBB24C4A1370136803F0070306
:101D28008B4240F08B80236813F0020F17D013F01A
:101D3800040F04D0454A936843F4E0539360236842
:101D480013F0080F04D0414A936843F4604393604A
:101D58003E4A936823F0F003A1680B43936023681D
:101D680013F0010F32D06368012B21D09A1E012A8B
:101D780025D9364A126812F0020F61D033498A68B1
:101D880022F0030213438B60FFF75AF906462F4BE4
:101D98009B6803F00C036268B3EB820F16D0FFF761
:101DA8004FF9801B41F288339842F0D9032042E072
:101DB800264A126812F4003FE0D101203BE0234A92
:101DC800126812F0007FD9D1012034E01E4B1B6845
:101DD80003F00703AB4207D9EAB21B4B1A701B6822
:101DE80003F00703AB422DD1236813F0040F06D08C
:101DF800164A936823F4E053E1680B439360236821
:101E080013F0080F07D0114A936823F4604321693F
:101E180043EAC1039360FFF707FF0C4B9B68C3F3CA
:101E280003130B4AD35CD8400A4B18600A4B186856
:101E3800FFF7BAF8002070BD012070470120FAE7CB
:101E48000120F8E70120F6E7003C02400038024094
:101E5800FC270008000000200800002030B4036AB6
:101E680023F001030362036A4268846924F073045F
:101E78000D682C4323F0020C8B6843EA0C03104DC9
:101E8800A84203D005F58065A84205D123F00803D0
:101E9800CD682B4323F00403094DA84203D005F570
:101EA8008065A84205D122F440724D692A438D69A4
:101EB8002A43426084614A684263036230BC7047C7
:101EC8000000014030B4036A23F480730362036A9C
:101ED8004268C46924F0730C0C6844EA0C0523F4C6
:101EE80000738C6843EA0423114CA04203D004F524
:101EF8008064A04206D123F40063CC6843EA04233B
:101F080023F480630A4CA04203D004F58064A04205
:101F180007D122F440524C6942EA04128C6942EA21
:101F280004124260C5614A68C263036230BC7047EC
:101F38000000014030B4036A23F480530362036A4B
:101F48004468C26922F4E6420D6842EA052223F495
:101F580000538D6843EA0533094DA84203D005F5BF
:101F68008065A84204D124F480444D6944EA85146C
:101F78004460C2614A680264036230BC704700BFB3
:101F88000000014010B4036A046A24F001040462EA
:101F9800846924F0F00C4CEA021223F00A030B4384
:101FA8008261036210BC704710B4046A24F0100404
:101FB80004628469036A24F4704C4CEA023223F008
:101FC800A00343EA01138261036210BC704783686F
:101FD80023F070030B4343F0070383607047704797
:101FE8000368304A904212D0B0F1804F0FD0A2F56A
:101FF8007C4290420BD002F58062904207D002F5F5
:102008008062904203D002F57842904203D123F0D7
:1020180070034A681343234A90422AD0B0F1804F94
:1020280027D0A2F57C42904223D002F580629042EC
:102038001FD002F5806290421BD002F57842904290
:1020480017D002F57052904213D002F58062904288
:102058000FD002F5806290420BD0A2F598329042E0
:1020680007D002F58062904203D002F58062904268
:1020780003D123F44073CA68134323F080034A69E9
:10208800134303608B68C3620B688362054B9842F5
:1020980003D003F58063984201D10B6903630123E0
:1020A800436170470000014040B310B5044690F802
:1020B8003D30F3B1022384F83D30214651F8040B3A
:1020C800FFF78EFF012384F8463084F83E3084F809
:1020D8003F3084F8403084F8413084F8423084F846
:1020E800433084F8443084F8453084F83D3000208B
:1020F80010BD80F83C30FEF703FFDBE70120704796
:1021080040B310B5044690F83D30F3B1022384F88B
:102118003D30214651F8040BFFF762FF012384F894
:10212800463084F83E3084F83F3084F8403084F8F4
:10213800413084F8423084F8433084F8443084F8DD
:10214800453084F83D30002010BD80F83C30FFF762
:1021580046FFDBE70120704730B4036A23F0100321
:102168000362036A4468826922F4E6420D6842EA1F
:10217800052223F020038D6843EA0513114DA84278
:1021880003D005F58065A84206D123F08003CD6809
:1021980043EA051323F040030A4DA84203D005F58E
:1021A8008065A84207D124F440644D6944EA850457
:1021B8008D6944EA8504446082614A6882630362E7
:1021C80030BC70470000014038B590F83C30012B16
:1021D80066D004460D46012380F83C300C2A5AD8B4
:1021E800DFE802F0075959591B59595930595959BB
:1021F80044000068FFF732FE2268936943F0080341
:1022080093612268936923F00403936122689369B8
:1022180029690B43936100203EE00068FFF79CFFAB
:102228002268936943F4006393612268936923F4F5
:102238008063936122689369296943EA0123936162
:10224800002029E00068FFF73DFE2268D36943F0CB
:102258000803D3612268D36923F00403D361226899
:10226800D36929690B43D361002015E00068FFF7A3
:1022780061FE2268D36943F40063D3612268D3699D
:1022880023F48063D3612268D369296943EA01236F
:10229800D361002000E00120002384F83C3038BDE1
:1022A8000220FCE710B4846824F47F4C42EA03223D
:1022B8000A4342EA0C02826010BC704790F83C3036
:1022C800012B78D010B50446012380F83C30022356
:1022D80080F83D300268936823F47F4323F0770346
:1022E80093600B68602B4CD029D8402B54D00CD964
:1022F800502B22D1CA6849680068FFF743FE502175
:102308002068FFF764FE002005E0202B0DD009D9D6
:10231800302B0AD00120012384F83D30002384F8B3
:102328003C3010BD0BB1102B05D119462068FFF7C2
:102338004EFE0020EFE70120EDE70120EBE7B3F5C3
:10234800805F34D0B3F5005F0CD1CB684A688968E8
:102358000068FFF7A7FF2268936843F480439360FF
:102368000020D8E7702B24D1CB684A6889680068B8
:10237800FFF798FF2268936843F077039360002083
:10238800C9E7CA6849680068FFF70EFE602120683F
:10239800FFF71DFE0020BEE7CA6849680068FFF71E
:1023A800F1FD40212068FFF712FE0020B3E700206E
:1023B800B1E70120AFE70220704701F01F010123B8
:1023C80003FA01FC036A23EA0C030362036A02FAB4
:1023D80001F10B430362704710B504460846002913
:1023E80042D194F83E30DBB2013B18BF0123002BE9
:1023F8006ED1002851D1022384F83E3001220146D3
:102408002068FFF7DAFF2368334A934203D002F5C6
:102418008062934203D15A6C42F400425A642368A2
:102428002D4A934249D0B3F1804F46D0A2F57C4261
:10243800934242D002F5806293423ED002F5806218
:1024480093423AD002F57842934236D002F5705260
:10245800934232D0A2F5943293422ED01A6842F0B9
:1024680001021A60002032E0042908D008290DD0A2
:1024780094F84130DBB2013B18BF0123B7E794F869
:102488003F30DBB2013B18BF0123B0E794F840307E
:10249800DBB2013B18BF0123A9E7042805D00828AF
:1024A80007D0022384F84130A8E7022384F83F309C
:1024B800A4E7022384F84030A0E79A6802F00702F4
:1024C800062A07D01A6842F001021A60002010BDDF
:1024D8000120FCE70020FAE70000014090F83C30BA
:1024E800012B3CD010B4012380F83C30022380F843
:1024F8003D3003685A689C6822F0700C0A6842EA0A
:102508000C025A600368174A93421AD0B3F1804FFD
:1025180017D0A2F57C42934213D002F58062934211
:102528000FD002F5806293420BD002F578429342B5
:1025380007D002F57052934203D0A2F59432934229
:1025480004D124F080044A6814439C60012380F875
:102558003D30002380F83C30184610BC70470220FC
:10256800704700BF0000014090F83C30012B22D09A
:10257800012380F83C30CB6823F440738A68134306
:1025880023F480634A68134323F400630A681343FF
:1025980023F480530A69134323F400534A6913430D
:1025A80023F48043CA69134302685364002380F804
:1025B8003C3018467047022070470000DFF834D0DE
:1025C8000D480E490E4A002302E0D458C450043383
:1025D800C4188C42F9D30B4A0B4C002301E013605A
:1025E8000432A242FBD3FEF7DDFC00F011F8FEF73F
:1025F8009FFB704700000220000000203C040020E0
:1026080024280008400400202C050020FEE70000D4
:1026180070B50D4E0D4D761BB61006D0002455F83A
:10262800043B01349847A642F9D1094E094D761B5F
:1026380000F0D4F8B61006D0002455F8043B013455
:102648009847A642F9D170BD182800081828000834
:102658002028000818280008830730B548D0541EE1
:10266800002A3FD0CAB2034601E0013C3AD303F83E
:10267800012B9D07F9D1032C2DD9CDB245EA0525AB
:102688000F2C45EA054536D9A4F1100222F00F0CAB
:1026980003F1200EE6444FEA121C03F1100242E94E
:1026A800045542E9025510327245F8D10CF1010285
:1026B80014F00C0F03EB021204F00F0C13D0ACF162
:1026C800040323F003030433134442F8045B9342E6
:1026D800FBD10CF003042CB1CAB21C4403F8012B43
:1026E8009C42FBD130BD64461346002CF4D1F9E777
:1026F80003461446BFE71A46A446E0E7024B13B167
:10270800024800F005B870470000000025270008BF
:10271800002301461A46184600F01AB838B5084B87
:10272800084D5B1B9C1007D0043B1D44013C55F829
:1027380004399847002CF9D1BDE8384000F054B866
:102748002428000820280008704700BF704700BFF1
:102758002DE9F047DFF87CA00646DAF80000984635
:102768000F469146FFF7F0FF1B4B1B68D3F8484113
:1027780024B365681F2D26DC5EB96B1C0235DAF8B8
:102788000000636044F82570FFF7E0FF0020BDE813
:10279800F08704EB85010123C1F88890D4F88821DB
:1027A800AB401A43022EC4F88821C1F80881E4D14D
:1027B800D4F88C211343C4F88C31DEE703F5A674F2
:1027C800C3F84841D5E7DAF80000FFF7BFFF4FF03C
:1027D800FF30DCE7380400200C280008F8B500BFFB
:1027E800F8BC08BC9E467047F8B500BFF8BC08BCEA
:0427F8009E46704742
:1027FC0000000000000000000102030406070809A5
:04280C001000002098
:08281000B4DFFF7F01000000AE
:0828180005270008AD010008CE
:042820008901000822
:102824000024F4000100000010000000000000007B
:1028340000000000FC02002064030020CC03002000
:102844000000000000000000000000000000000084
:102854000000000000000000000000000000000074
:102864000000000000000000000000000000000064
:102874000000000000000000000000000000000054
:102884000000000000000000000000000000000044
:102894000000000000000000000000000000000034
:1028A4000000000000000000000000000000000024
:1028B4000000000000000000000000000000000014
:1028C4000000000000000000000000000000000004
:1028D40000000000000000000100000000000000F3
:1028E4000E33CDAB34126DE6ECDE05000B000000B8
:1028F40000000000000000000000000000000000D4
:1029040000000000000000000000000000000000C3
:1029140000000000000000000000000000000000B3
:1029240000000000000000000000000000000000A3
:0C2C540000000000000000002805002027
:04000005080025C505
:00000001FF
